:020000040800F2
:1000000040070020755C0008A5050008A70500084A
:10001000A9050008AB050008AD05000800000000B8
:10002000000000000000000000000000AF05000814
:10003000B105000800000000B3050008B505000880
:100040008F5C00088F5C00088F5C00088F5C0008E4
:100050008F5C00088F5C00088F5C00088F5C0008D4
:100060008F5C00088F5C00088F5C00088F5C0008C4
:100070008F5C00088F5C00088F5C00088F5C0008B4
:100080008F5C00088F5C00088F5C00088F5C0008A4
:100090008F5C00088F5C00088F5C00088F5C000894
:1000A0008F5C00088F5C00088F5C00088F5C000884
:1000B0008F5C00088F5C00088F5C00088F5C000874
:1000C0008F5C00088F5C00088F5C00088F5C000864
:1000D0008F5C00088F5C0008055600088F5C0008E4
:1000E0008F5C00088F5C00088F5C00088F5C000844
:1000F0008F5C00088F5C00088F5C00088F5C000834
:100100008F5C00088F5C00088F5C00088F5C000823
:100110008F5C00088F5C00088F5C00088F5C000813
:100120008F5C00088F5C00088F5C00088F5C000803
:1001300000F002F800F03AF80AA090E8000C8244BF
:100140008344AAF10107DA4501D100F02FF8AFF29C
:10015000090EBAE80F0013F0010F18BFFB1A43F0A5
:1001600001031847D87F0000F87F0000103A24BF31
:1001700078C878C1FAD8520724BF30C830C144BF0C
:1001800004680C607047000000230024002500264E
:10019000103A28BF78C1FBD8520728BF30C148BFEA
:1001A0000B6070471FB51FBD10B510BD06F075FA86
:1001B0001146FFF7F7FF00F0FFF806F093FA03B4DB
:1001C000FFF7F2FF03BC05F0FBFC000010B50024B4
:1001D000A0B2002105F02BFC641CFF2CF8DD10BD43
:1001E0002DE9F0410024C64DA046C64E0CE006EBBA
:1001F000840104EB44000F460322401C05F072FC0E
:10020000641C87F80380E4B2A87808B1202000E0DD
:100210006878A042EBD8BDE8F0817CB51024B84DD9
:10022000009423462A7864213C2005F0EDF8B6A01E
:10023000CDE900401023C82278213C2005F05FF969
:10024000B4A0CDE900401023C822AA213C2005F02B
:1002500056F9AC482978102300EB8100CDE9004025
:10026000C822AA213C2005F04AF9A87800210028DC
:10027000287800F10100C0B2287003D0202800D3F4
:1002800029707CBD6A789042FAD27CBD7CB510257D
:100290009B4C00952B46227864213C2005F0B4F855
:1002A00099A0CDE900501023C82278213C2005F008
:1002B00026F998A0CDE900501023C822AA213C209D
:1002C00005F01DF98F482178102300EB8100CDE95E
:1002D0000050C822AA213C2005F011F9A07800287E
:1002E0002078A0F10101217003D0002807D11F2040
:1002F00004E0002803D1607800B1401E20707CBD6E
:100300001CB5102484A0CDE900402346C8229621C4
:100310003C2005F0F4F8FFF759FF86A0CDE9004036
:100320001023C82296213C2005F0E9F81CBD7CB5BD
:10033000734C744E03226078854906EB800006F00A
:1003400034F96178002006EB810140F23F13C87058
:100350004FF6FF7000210090EF22084604F0A7FE40
:1003600010257CA0CDE900502B46C82296213C20C8
:1003700005F0C5F86078032206EB800100EB400031
:10038000401C05F0C0FB6078401CC0B260702028A3
:1003900001D30121A170A17801B180210143002086
:1003A00005F045FB71A0CDE900501023C82296212D
:1003B0003C2005F0A4F87CBD1CB505F0B5FB4FF45E
:1003C000165005F007FC4FF4E13005F0CBF800F0D3
:1003D0009FF901F088FA05F055F905F005FBDFF803
:1003E000A4914FF4784408205949A9F800402022EC
:1003F0000A54401C1028FBDB00268846CE7330468A
:1004000005F0F4FA3E4DFF28687002D16E70FFF7D8
:1004100077FF687800F08001A97000F01F00687015
:10042000FFF7DEFE102058A1CDE900010346C822E7
:1004300096213C2005F063F8574FDFF860B1A246E3
:10044000002005F052F90446E878A0421CD1012CA6
:1004500001D0022C0ED16868401C686064283AD92B
:10046000D7F8A00140B10020C7F8A001012C05D0A9
:10047000022C06D06E602EE00120F5E7FFF7CDFEDE
:10048000F8E7FFF703FFF5E7D7F8A00160B1002018
:10049000C7F8A001B4B1012C08D0022C09D0032C5C
:1004A0000DD0042C16D107E00120F1E7FFF7B5FECF
:1004B00010E0FFF7EBFE0DE0FFF739FF0AE0FFF772
:1004C0001FFF07E036496E60D1F88801A8B100200F
:1004D000C1F88801EC70A9F800A09BF800005C4608
:1004E0000028ADD01821CDE900180B46C8222821DC
:1004F0001E2005F004F82670A2E70120E8E70000BE
:100500000000002040000020486973746F72793A3F
:100510000000000020202000436C656172696E6756
:1005200020464C41534820646174612E2E2E2E20AB
:10053000000000004D454D4F525920434C4541525B
:1005400045442020202020202020202000000000E2
:10055000CE00002053746172742057726974652054
:1005600032344330322E2E2E2E00000032344330EF
:10057000322057726974652046696E6973686564D4
:10058000210000001C000020486973746F727920FC
:100590006C6F61646564000000002142220000204D
:1005A000008022427047FEE7FEE7FEE7FEE7704765
:1005B00070477047704700000CB500224C4800920D
:1005C0000192016841F4803101604FF4A063016839
:1005D00001F4003101910099491C0091019911B970
:1005E00000999942F3D10168890333D50121019122
:1005F00040490A6842F010020A600A6822F00302C9
:100600000A600A6842F002020A604168416041687B
:100610004160416841F480614160416821F47C118E
:100620004160416841F4E8114160016841F0807126
:10063000016001688901FCD5416821F00301416036
:10064000416841F0020141604168C1F38101022922
:10065000FAD10CBD01920CBD254810B5016841F0DE
:10066000010101604168244A114041600168234A48
:1006700011400160016821F480210160416821F48A
:10068000FE0141604FF41F018160FFF795FF1C4997
:100690004FF00060086010BD154A10B55068194B46
:1006A00010F00C01184803D0042901D0082901D00A
:1006B000036012E05168536801F470114FF00204B6
:1006C00013F4803F04EB914102D053689B0301D5A2
:1006D0000E4B00E00B4B5943016051680A4AC1F3CD
:1006E0000311121D515C0268CA40026010BD000077
:1006F00000100240002002400000FFF8FFFFF6FE5D
:1007000008ED00E000127A000800002000093D001A
:1007100038B50121242005F00CFD4FF48074ADF8AC
:10072000004010208DF8030003200C4D8DF80200CE
:100730006946284605F015FB2146284605F07BFB57
:100740000420074CADF800006946204605F009FB7F
:100750000421204605F06FFB38BD00000008014071
:1007600000140140FF494FF480724A614A154A6102
:10077000FD4B18608020486108610A617047F949A3
:100780004FF480720A614A154A61F74B1860802065
:10079000486108610A6170472DE9F047DFF8C893A6
:1007A0004FF08830A9F10C09C9F8000009F10405DF
:1007B0002860ED4E00203060EA4CA815206147000B
:1007C00067614FF04008C4F81480E8488088A0F5BD
:1007D0000941893902D1022005F0BDF9E248001F24
:1007E0000068C4F8108080B227614FF03331C9F837
:1007F000001029604FF6FF713160BDE8F08710B539
:100800000C46FFF7AFFFD7484FF4807101614215E6
:100810004261D5490C60802141610161026110BDD6
:1008200010B5FFF79FFFBDE81040B5E7CF4800893E
:1008300098E7CC494FF480720A614A154A61CA4B65
:1008400018608020486108610A617047C0F3451153
:10085000C20AC00200EB4110104480B27047401E33
:10086000C0B2FCD270472DE9F34F0446070A00F0EE
:10087000FF090198BD4A060AC5B291881046DFF803
:10088000E4A24089A1F513434FF4807B413B1CD087
:10089000A1F5A643103B18D0134690469A791B88C1
:1008A000A1F5D04C1B1B5B1EBCF1040C3CD0C44614
:1008B000A1F5C858B8F163087DD0A1F5A048B8F5F6
:1008C000A26876D0012A75D062E1FFF74BFF54464B
:1008D000CAF810B04FF4007CCAF814C0DFF8888260
:1008E000C8F800708027CAF81470CAF81070CAF8E7
:1008F00010C0CAF810B0CAF814C0C8F80090CAF8FE
:100900001470CAF81070CAF810C098488089FFF7B0
:1009100029FFC4F810B0C4F814C0C8F800606761BB
:100920002761C4F810C027E1012A00D19CB2FFF76B
:1009300019FF5746CAF810B04FF4007CCAF814C02B
:10094000DFF82492210AC9F800104FF08008CAF895
:100950001480CAF81080CAF810C0CAF810B0CAF8DB
:1009600014C0E1B2C9F80010CAF81480C7F81080AA
:10097000C7F810C07D488089FFF7F4FEC7F810B0B3
:10098000C7F814C0C9F80060C7F81480C7F8108011
:10099000C7F810C0C7F810B0C7F814C0C9F80050A5
:1009A000C7F81480C7F81080C7F810C0BDE8FC8FE6
:1009B00001E0A2E0EBE0E046F2B3FFF7D3FE5C46D5
:1009C0005046CAF810B04FF40071CAF81410DFF89E
:1009D00098C1CCF800708022CAF81420CAF8102000
:1009E000CAF81010CAF810B0CAF81410CCF8009069
:1009F000CAF81420CAF81020CAF81010CAF810401B
:100A00004161B8F800305B1E1F12CCF800704261E3
:100A10000261016104614161DBB2CCF800304261E6
:100A2000026101614446B8F80C00FFF79BFE5F4687
:100A30005046CAF810B000E02EE04FF40072CAF839
:100A40001420DFF824C1CCF800608021CAF814100B
:100A5000CAF81010CAF81020CAF810B0CAF814204A
:100A6000CCF80050CAF81410CAF81010CAF81020B8
:100A7000CAF81070426163885B1E1C12CCF80040FB
:100A800041610161026107614261DBB2CCF8003073
:100A900041610161026189E79CB2FFF763FE5B4639
:100AA0005046CAF810B04FF40071CAF814102E4F17
:100AB0004FF0000CC7F800C08022CAF81420CAF812
:100AC0001020CAF81010CAF810B0CAF81410C7F8ED
:100AD00000C0CAF81420CAF81020CAF81010036128
:100AE00041614FEA142CC7F800C042610261016104
:100AF00003614161E3B23B6091E7FFF733FE544687
:100B0000CAF810B04FF4007CCAF814C0DFF858805F
:100B1000C8F800708027CAF81470CAF81070CAF8B4
:100B200010C012484089401C80B2FFF71BFEC4F879
:100B300010B0C4F814C0C8F8009067612761C4F809
:100B400010C00A488089FFF70DFEC4F810B0C4F841
:100B500014C0C8F8006067612761C4F810C003487A
:100B6000808905E0001001400C0C0140C00000200D
:100B7000401C80B2FFF7F6FDC4F810B0C4F814C0F2
:100B8000C8F8005067612761C4F810C00EE79CB236
:100B90002146FFF734FEBCF80C000199BDE8FC4F7C
:100BA0002DE62DE9F84FFC4D2A88824202D96A8849
:100BB0008A4202D80020BDE8F88FFFF754FEF648BD
:100BC00045F2103B8088A0F51341413956D0A0F57D
:100BD000D041043952D0584550D0A0F5C85163399E
:100BE0004CD0A0F5AA4110394AD02220FFF7BAFD17
:100BF000EA4F4FF08830386007F1040CCCF8000061
:100C0000DFF898A34FF6FF750AF10C0ACAF80050F6
:100C1000E34BB81518614FF40079C3F814904FF006
:100C20004008C3F814800220401EC0B2FCD2DB4E44
:100C300008363068C3F8108080B2D7494FF0333E91
:100C40008988A1F5C852633A1DD0C3F814800220E8
:100C5000401EC0B2FCD23068C3F8108080B2A1F54B
:100C60001342413A18D0594516D0A1F5AA42103A7C
:100C700012D0A1F5D042043A1DD022E02E20B5E7D3
:100C80004FF43850B2E7C3F81090C7F800E0CCF842
:100C900000E0CAF800508EE7C3F814800222521E0A
:100CA000D2B2FCD2326892B20092C3F81080C2B2C3
:100CB00005EA022405E0C3F81480C3F81080306808
:100CC00080B2C3F81090C7F800E0CCF800E0CAF892
:100CD0000050A1F51342253ADDD0A1F58A42353AFC
:100CE000D9D0A1F58A42313AD5D0A1F50942893A45
:100CF000D1D0A1F53542053ACDD0A1F51342413A04
:100D000008D0594506D0A1F5AA42103A02D0BDE854
:100D1000F84F9BE56FF30A00A10A40EA41110098E1
:100D200041EAD02047E79C488088A0F5134141392B
:100D300013D0A0F5D04104390FD0A0F5A641103949
:100D40000BD0A0F5C851633907D0A0F5AA411039DE
:100D500005D040F27311072051E5292001E04FF43E
:100D60002450FFE48C488088A0F51341413912D00B
:100D7000A0F5D04104390ED0A0F5A64110390AD013
:100D8000A0F5C851633906D0A0F5AA41103904D0A6
:100D90000021072033E5282001E04FF42050E1E452
:100DA0002DE9F04F7C4C00262146A279898846F631
:100DB000040341F66317012A01D02AB11DE09942CC
:100DC0001BD0B94202D118E0B94216D1082814D27A
:100DD000DFE800F00406080A0C0E101206200CE0F2
:100DE00007200AE0042008E0052006E0012004E0D6
:100DF000002002E0032000E00220A1F5134C45F2A0
:100E0000103245F21055BCF1410C07D0994205D083
:100E1000914203D0A94201D0B9427DD1082812D213
:100E2000DFE800F0110406080A0C0E1080260AE024
:100E3000402608E0C02606E0202604E0602602E006
:100E4000A02600E0E026A94202D14FF4585000E06D
:100E50003620914205D0A94203D0B94201D046F0D4
:100E60000806994201D146F002063146FFF7C7FC59
:100E7000A088B8420AD0B1062188628802D5914282
:100E800002D303E0914201D922806180444EDFF811
:100E90000CA177154FF000084FF0800B4FF4807CC9
:100EA0000AF10C0AA8427ED16089FFF75BFCC6F804
:100EB00010C077614046C146D046CAF800005D4682
:100EC000C6F814B0C6F810B037616089401C80B213
:100ED000FFF748FCC6F810C07761C8F8009075614C
:100EE000356137616089801C80B2FFF73BFCC6F832
:100EF00010C077612088401E0112C8F8001075618B
:100F0000356137616089C01C80B2FFF72BFCC6F8E1
:100F100010C07761207800E09CE0401EC1B2C8F8A4
:100F20000010756135613761A089FFF71BFCC6F8B9
:100F300010C07761C8F80090756135613761A0898C
:100F4000401C80B2FFF70EFCC6F810C07761C8F8ED
:100F50000090756135613761A089801C80B2FFF710
:100F600001FCC6F810C077616088401E0112C8F805
:100F70000010756135613761A089C01C80B2FFF730
:100F8000F1FBC6F810C07761A078401EC1B2C8F866
:100F90000010756135615AE0C0000020000C01406E
:100FA00000100140FFE7A1466089FFF7DBFBC6F8B0
:100FB00010C077615546CAF800805C46C6F814B088
:100FC000C6F810B03761C6F810C07761CAF8008063
:100FD000C6F814B0C6F810B03761C6F810C0776113
:100FE000B9F80000401E01122960C6F814B034613F
:100FF0003761C6F810C07761C0B22860746134618F
:101000003761B9F80C00FFF7ADFBC6F810C0776187
:10101000C5F80080746134613761C6F810C077612B
:10102000C5F80080746134613761C6F810C077611B
:10103000B9F80200401E0112296074613461376101
:10104000C6F810C07761C0B228607461346137613E
:10105000BDE8F08F082812D2DFE800F0040608117E
:101060000A0C0E1030260AE0102608E0202606E0C2
:10107000382604E0282602E0182600E0082646F478
:101080008051BDE8F04F0320FFF7B9BB00B5FFF773
:10109000EAFBFFF7CBFBF8484FF480710161411583
:1010A0004161F64AF64B12881A6080224261026161
:1010B000016100BD2DE9F74F0446F24881B0DFF829
:1010C000B8B381880298DFF8B89300F0FF08050AEA
:1010D000E0B20090EB48270AA1F5134240894FF493
:1010E000807A4FF40076413A19D0DFF898C3A1F521
:1010F000A642103A13D0A1F5AA42103A3BD063465B
:10110000A1F5C8579A791B881B1B5B1E633F6CD0E7
:10111000A1F5D047043F7DD0012A7CD0F6E0DFF86E
:1011200064C3FFF71FFB5C46CBF810A0CBF814603C
:10113000C9F800708027CBF81470CBF81070CBF88A
:101140001060CBF810A0CBF814600098C9F800002C
:10115000CBF81470CBF81070CBF81060BCF80C0012
:10116000FFF700FBC4F810A06661C9F80050676182
:101170002761266130E0FFF7F5FA5C46CBF810A056
:10118000CBF81460C9F800708027CBF81470CBF846
:101190001070CBF81060BCF80A00401C80B2FFF75A
:1011A000E1FAC4F810A066610098C9F80000676110
:1011B00027612661BCF80C00FFF7D4FAC4F810A030
:1011C0006661C9F80050676127612661BCF80C00B0
:1011D000401C80B2FFF7C6FAC4F810A06661C9F8D7
:1011E000008067612761266198E002B99CB2FFF731
:1011F000B9FA5F46CBF810A0CBF81460200AC9F802
:1012000000004FF0800CCBF814C0CBF810C0CBF826
:10121000106001E03EE078E0CBF810A0CBF814605D
:10122000E1B2C9F80010CBF814C0CBF810C0CBF86D
:101230001060C7F810A07E61C9F80000C7F814C09C
:10124000C7F810C03E61C7F810A07E61C9F8001051
:10125000C7F814C0C7F810C03E618A488089FFF7FC
:1012600081FAC7F810A07E61C9F80050C7F814C011
:10127000C7F810C03E61C7F810A07E61C9F80080B1
:10128000C7F814C0C7F810C03E61C7F810A07E614F
:10129000484629E0012A00D19CB2FFF763FA5F4675
:1012A000CBF810A0CBF81460210AC9F800104FF059
:1012B000800CCBF814C0CBF810C0CBF81060CBF882
:1012C00010A0CBF81460E1B2C9F80010CBF814C03C
:1012D000CBF810C0CBF810606A488089FFF742FA5B
:1012E000C7F810A07E6148460560C7F814C0C7F86B
:1012F00010C03E61C7F810A07E61C9F80080C7F831
:1013000014C0C7F810C03E6108E09CB22146FFF748
:1013100076FABCF80C000299FFF771FA5846CBF840
:1013200014A0CBF8146057490989C9F8001080212E
:10133000CBF81410CBF81010CBF81060CBF810A03D
:10134000CBF81460039BC9F80030CBF81410CBF82D
:1013500010100661BDE8FF8F2DE9F0418446BE20E4
:10136000FFF700FA444C4FF48077276165156561FB
:10137000DFF80C810521C8F800108026666126611F
:10138000256127616561604605F0E7F94FF0663237
:101390003D4B05F0F5F905F0B3F9C8F800006661BA
:1013A00026612561276165610121C8F80010666129
:1013B0002661256127616561FF21C8F8001066611B
:1013C00026612561276165610020C8F8000066611B
:1013D0002661256127616561C8F8000066612661A4
:1013E0002561BDE8F0812DE9F04F26492A232B2401
:1013F000898845F2105A4FF4305B4FF4285E4FF461
:1014000048754FF0F00C49F241394FF4A07745F29E
:1014100010364FF4F07280B11A484FF00108494578
:1014200080F806800780A0F802C001D0B14249D1FF
:101430002C2505814381848162E012484FF0000829
:10144000494580F80680A0F800C0478006D0A1F585
:10145000D04CBCF1040C01D0B14217D12C25058130
:101460004381A1F5D0438481043B01D0B1424FD1E7
:10147000078042804CE00000001001401C0000206A
:101480000C0C0140C000002066660440514507D1A5
:10149000A0F808B0A0F80AE04FF42C5181810EE0CA
:1014A000A1F5C856633E06D0222101812021418149
:1014B000212181812CE02C210181448183810280C2
:1014C000458025E0A1F5D04CBCF1040C09D0514574
:1014D0000BD1A0F808B0A0F80AE04FF42C53838198
:1014E00020E02C250581448109E0A1F5C85CBCF110
:1014F000630C11D022230381212343812023838184
:10150000A1F5D043043B01D0B14201D10280478014
:10151000BDE8F04F002043E44FF02C0CA0F808C0C9
:101520004381848105804280EAE72DE9FF4F04462C
:1015300091464844DFF878E4401E86B087B2BEF892
:101540000400E2B2049204EB0902521E1FFA82FC6C
:101550004FEA1C22CE1803920CF0FF02761E1FFAEF
:1015600086FC02924FEA1C2201920CF0FF020D460B
:1015700000927246A0F513415289B3B24FEA142883
:101580004FEA152B05F0FF0A413910D0A0F5A6410E
:1015900010390CD0A0F5D041043908D09EF80610BF
:1015A00041F6631C0591012950D160454ED1F146A9
:1015B0001046FFF7D7F8FF4C4FF48076266165158B
:1015C0006561FD4FC7F800804FF0800CC4F814C06F
:1015D000C4F810C025612661656104983860C4F8BC
:1015E00014C0C4F810C02561266165610398386095
:1015F000C4F814C0C4F810C0256126616561029862
:101600003860C4F814C0C4F810C02561B9F80C00E3
:10161000FFF7A8F826616561C7F800B0C4F814C0E8
:10162000C4F810C0256126616561C7F800A0C4F840
:1016300014C0C4F810C02561266165610198386046
:10164000C4F814C0C4F810C02561FDE0D849604555
:1016500009885BD1A1EB0900001B1FFA80F8B0B22A
:1016600009901046FFF77EF8D24C4FF4807727613F
:1016700065156561DFF840C34FEA1820CCF800001B
:1016800080266661266125612761656108F0FF009B
:10169000CCF800006661266125612761656108EB71
:1016A0000900401E0112CCF8001066612661256118
:1016B00027616561C0B2CCF80000666126612561D2
:1016C000BB488089FFF74EF827616561CCF800B010
:1016D00066612661256127616561CCF800A06661BD
:1016E00026612561276165610998000ACCF8000030
:1016F000666126612561276165610998C0B2CCF8F1
:1017000000006661266125610AB0A1E4A0F5A04C45
:10171000BCF5A26C24D0059801287CD03E4620461A
:101720002F469C46502201464FF0510A4FF0520975
:101730004FF053081046FFF762F831465046FFF766
:101740005EF839464846FFF75AF861464046FFF7CB
:1017500056F80AB029462046BDE8F04FFFF783B897
:10176000F1461046FEF7FEFF924C4FF4807626615C
:1017700065156561904FC7F800804FF0800CC4F884
:1017800014C0C4F810C02561B9F80A00401C80B22A
:10179000FEF7E8FF2661656104983860C4F814C05C
:1017A000C4F810C02561B9F80A00801C80B2FEF7A9
:1017B000D9FF2661656103983860C4F814C0C4F885
:1017C00010C02561B9F80A00C01C80B2FEF7CAFF3C
:1017D0002661656102983860C4F814C0C4F810C06E
:1017E0002561B9F80C00FEF7BDFF26616561C7F8F9
:1017F00000B0C4F814C0C4F810C02561B9F80C00DA
:10180000401C80B2FEF7AEFF26616561C7F800A0FC
:10181000C4F814C000E020E0C4F810C02561B9F895
:101820000C00801C80B2FEF79DFF26616561019867
:101830003860C4F814C0C4F810C02561B9F80C00B1
:10184000C01C80B2FEF78EFF26616561009838608B
:10185000C4F814C0C4F810C055E7CA1B521E091BB7
:10186000491E28461E4697B21FFA81FC5AE72DE909
:10187000F0434F4F0646002438887D884543B8889A
:10188000A0F5D041043902D1B87901280CD000214B
:101890000846FEF7E8FFFEF7C9FF46494FF4807798
:1018A0004B15454A80201AE00020B8714FF02A08F5
:1018B000A7F80A804FF02B09A7F80C900146FEF715
:1018C000D2FF0120B871A7F80A90A7F80C80E2E7D0
:1018D0000F614B611660486108610B61641CAC428A
:1018E000F6D3BDE8F0832DE9F84F0121192004F06B
:1018F00020FC0121314804F0BFFA4FF4F860ADF844
:10190000000010208DF8030003208DF802006946C6
:10191000284804F026FA4FF4F861264804F08BFAC0
:10192000254D4FF6FF7B0C3D5C46ADF800B0694697
:10193000284604F016FA2146284604F07CFA3220A4
:1019400004F020F901210020FEF759FF322004F0B5
:1019500019F90020FEF764FF154D4FF4807449F229
:101960004138A88046F6040945F2103A45F210566F
:10197000FF2804D3584502D0B0F5134F76D1D320B9
:10198000FEF7F0FEFEF708FFFEF706FFFEF704FF86
:101990000BEA00205F46A880FEF7FEFEA9880843F8
:1019A000A880404562D0BF20FEF7DCFE08E00000C2
:1019B000C0000020001001400C0C0140000230006B
:1019C000FEF7EAFEFEF7E8FEFEF7E6FEFEF7E4FEAF
:1019D00007EA0020A880FEF7DFFEA9880843A88058
:1019E000484543D0D420FEF7BDFEFEF7D5FEFEF7F6
:1019F000D3FEFEF7D1FE07EA0020A880FEF7CCFE5A
:101A0000A9880843A880504530D04FF45A40FEF7CB
:101A1000A9FEFEF7C1FE4FF45B40FEF7A3FEFEF702
:101A2000BBFE07EA0020A8804FF45C40FEF79AFE58
:101A3000FEF7B2FEA9880843A880B0F5004F7DD01C
:101A4000B04213D0A120FEF78DFEFEF7A5FEA880C0
:101A5000FEF7A2FE07EA0020A880FEF79DFEA988F7
:101A60000843A0F5AE41A880613968D080B24045F6
:101A700066D1CF20FEF776FE0020FEF780FEC12063
:101A8000FEF77DFE3020FEF77AFEED20FEF76AFEBF
:101A90006420FEF774FE0320FEF771FE1220FEF7AD
:101AA0006EFE8120FEF76BFEE820FEF75BFE8520D0
:101AB000FEF765FE1020FEF762FE7A20FEF75FFE5D
:101AC000CB20FEF74FFE3920FEF759FE2C20FEF703
:101AD00056FE0020FEF753FE3420FEF750FE022093
:101AE000FEF74DFEF720FEF73DFE2020FEF747FEF5
:101AF000EA20FEF737FE0020FEF741FE0020FEF749
:101B00003EFEC020FEF72EFE1B20FEF738FEC12051
:101B1000FEF728FE0120FEF732FEC520FEF722FE6A
:101B20003020FEF72CFE3020FEF729FEC720FEF7FE
:101B300019FEB720FEF723FE362002E0B1E0ABE04D
:101B4000B2E0FEF70FFE4820FEF719FE3A20FEF73E
:101B500009FE5520FEF713FEB120FEF703FE00201C
:101B6000FEF70DFE1A20FEF70AFEB620FEF7FAFD7C
:101B70000A20FEF704FEA220FEF701FEF220FEF787
:101B8000F1FD0020FEF7FBFD2620FEF7EBFD012016
:101B9000FEF7F5FDE020FEF7E5FD0F20FEF7EFFD77
:101BA0002A20FEF7ECFD2820FEF7E9FD0820FEF7CD
:101BB000E6FD0E20FEF7E3FD0820FEF7E0FD5420D1
:101BC000FEF7DDFDA920FEF7DAFD4320FEF7D7FD85
:101BD0000A20FEF7D4FD0F20FEF7D1FD0020FEF70E
:101BE000CEFD0020FEF7CBFD0020FEF7C8FD002053
:101BF000FEF7C5FDE120FEF7B5FD0020FEF7BFFDB5
:101C00001520FEF7BCFD1720FEF7B9FD0720FEF7F3
:101C1000B6FD1120FEF7B3FD0620FEF7B0FD2B2028
:101C2000FEF7ADFD5620FEF7AAFD3C20FEF7A7FD0E
:101C30000520FEF7A4FD1020FEF7A1FD0F20FEF702
:101C40009EFD3F20FEF79BFD3F20FEF798FD0F20F5
:101C5000FEF795FD2B20FEF785FD0020FEF78FFD9A
:101C60000020FEF78CFD0120FEF789FD3F20FEF7E6
:101C700086FD2A20FEF776FD0020FEF780FD00207D
:101C8000FEF77DFD0020FEF77AFDEF20FEF777FDE1
:101C90001120FEF767FDADE041F66310A88003F068
:101CA00080B8AE8001F02AB848457CD11120FEF7FB
:101CB00059FD142003F066FFD020FEF753FD0720E6
:101CC000FEF75DFD4220FEF75AFD1D20FEF757FD91
:101CD000D120FEF747FD0020FEF751FD1A20FEF748
:101CE0004EFD0920FEF74BFDD220FEF73BFD012003
:101CF000FEF745FD2220FEF742FDC020FEF732FD33
:101D00001020FEF73CFD3B20FEF739FD0020FEF7DA
:101D100036FD0220FEF733FD1120FEF730FDC52011
:101D2000FEF720FD0320FEF72AFDC820FEF71AFD6E
:101D30000020FEF724FD2520FEF721FD2120FEF7DF
:101D40001EFD0520FEF71BFD0020FEF718FD0A20F2
:101D5000FEF715FD6520FEF712FD2520FEF70FFDAD
:101D60007720FEF70CFD5020FEF709FD0F20FEF74F
:101D700006FD0020FEF703FDF820FEF7F3FC01202E
:101D8000FEF7FDFCFE20FEF7EDFC0020FEF7F7FC61
:101D90000220FEF7F4FC2020FEF7E4FC3620FEF7DC
:101DA000E1FC082000E02BE0FEF7E9FC3A20FEF71A
:101DB000D9FC5520FEF7E3FC2B20FEF7D3FC0020D6
:101DC000FEF7DDFC0020FEF7DAFC0120FEF7D7FC71
:101DD0003F20FEF7D4FC2A20FEF7C4FC0020FEF7CB
:101DE000CEFC0020FEF7CBFC0120FEF7C8FCDF2074
:101DF000FEF7C5FC782003F0C5FE292001F0FBBEEC
:101E000050457CD1ED20FEF7ADFC0120FEF7B7FC7C
:101E1000FE20FEF7B4FCEE20FEF7A4FCDE20FEF769
:101E2000AEFC2120FEF7ABFCF120FEF79BFC01206D
:101E3000FEF7A5FCDF20FEF795FC1020FEF79FFCC7
:101E4000C420FEF78FFC8F20FEF799FCC620FEF71A
:101E500089FC0020FEF793FCE220FEF790FCE220D4
:101E6000FEF78DFCE220FEF78AFCBF20FEF77AFC2D
:101E7000AA20FEF784FCB020FEF774FC0D20FEF7CC
:101E80007EFC0020FEF77BFC0D20FEF778FC002096
:101E9000FEF775FC1120FEF772FC0020FEF76FFCC8
:101EA0001920FEF76CFC0020FEF769FC2120FEF7EC
:101EB00066FC0020FEF763FC2D20FEF760FC00208E
:101EC000FEF75DFC3D20FEF75AFC0020FEF757FCB4
:101ED0005D20FEF754FC0020FEF751FC5D20FEF76C
:101EE0004EFC0020FEF74BFCB120FEF73BFC8020AF
:101EF000FEF745FC0020FEF742FC8B2000E0FCE3EF
:101F0000FEF73DFC0020FEF73AFC9620FEF737FC7A
:101F10000020FEF734FCB220FEF724FC0020FEF780
:101F20002EFC0020FEF72BFC0220FEF728FC0020F0
:101F3000FEF725FC0320FEF722FC0020FEF71FFC25
:101F4000B320FEF70FFC0020FEF719FC0020FEF77F
:101F500016FC0020FEF713FC0020FEF710FC00200A
:101F6000FEF70DFC0020FEF70AFC0020FEF707FC40
:101F70000020FEF704FC0020FEF701FC0020FEF725
:101F8000FEFB0020FEF7FBFB0020FEF7F8FB002025
:101F9000FEF7F5FB0020FEF7F2FB0020FEF7EFFB5B
:101FA0000020FEF7ECFB0020FEF7E9FB0020FEF727
:101FB000E6FB0020FEF7E3FB0020FEF7E0FB00203D
:101FC000FEF7DDFB0020FEF7DAFB0020FEF7D7FB73
:101FD0000020FEF7D4FBB420FEF7C4FB8B20FEF7F5
:101FE000CEFB0020FEF7CBFB9620FEF7C8FB0020BF
:101FF000FEF7C5FBA120FEF7C2FB0020FEF7BFFBEA
:10200000B520FEF7AFFB0220FEF7B9FB0020FEF77C
:10201000B6FB0320FEF7B3FB0020FEF7B0FB042065
:10202000FEF7ADFB0020FEF7AAFBB620FEF79AFBF9
:102030000020FEF7A4FB0020FEF7A1FBB720FEF76F
:1020400091FB0020FEF79BFB0020FEF798FB3F2052
:10205000FEF795FB0020FEF792FB5E20FEF78FFB5C
:102060000020FEF78CFB6420FEF789FB0020FEF7C2
:1020700086FB8C20FEF783FB0020FEF780FBAC2064
:10208000FEF77DFB0020FEF77AFBDC20FEF777FBF6
:102090000020FEF774FB7020FEF771FB0020FEF7B6
:1020A0006EFB9020FEF76BFB0020FEF768FBEB2039
:1020B000FEF765FB0020FEF762FBDC20FEF75FFB0E
:1020C0000020FEF75CFBB820FEF74CFB0020FEF77B
:1020D00056FB0020FEF753FB0020FEF750FB0020CC
:1020E000FEF74DFB0020FEF74AFB0020FEF747FB02
:1020F0000020FEF744FB0020FEF741FBBA20FEF76C
:1021000031FB2420FEF73BFB0020FEF738FB0020CC
:10211000FEF735FB0020FEF732FBC120FEF722FB65
:102120002020FEF72CFB0020FEF729FB5420FEF7B1
:1021300026FB0020FEF723FBFF20FEF720FB0020FC
:10214000FEF71DFBC220FEF70DFB0A20FEF717FB72
:102150000020FEF714FB0420FEF711FB0020FEF721
:102160000EFBC320FEF7FEFA3C20FEF708FB002022
:10217000FEF705FB3A20FEF702FB0020FEF7FFFA10
:102180003920FEF7FCFA0020FEF7F9FA3720FEF7B7
:10219000F6FA0020FEF7F3FA3C20FEF7F0FA0020F2
:1021A000FEF7EDFA3620FEF7EAFA0020FEF7E7FA2E
:1021B0003220FEF7E4FA0020FEF7E1FA2F20FEF7C6
:1021C000DEFA0020FEF7DBFA2C20FEF7D8FA00201A
:1021D000FEF7D5FA2920FEF7D2FA0020FEF7CFFA53
:1021E0002620FEF7CCFA0020FEF7C9FA2420FEF7DD
:1021F000C6FA0020FEF7C3FA2420FEF7C0FA00203A
:10220000FEF7BDFA2320FEF7BAFA0020FEF7B7FA70
:102210003C20FEF7B4FA0020FEF7B1FA3620FEF7B4
:10222000AEFA0020FEF7ABFA3220FEF7A8FA002043
:10223000FEF7A5FA2F20FEF7A2FA0020FEF79FFA7C
:102240002C20FEF79CFA0020FEF799FA2920FEF7D1
:1022500096FA0020FEF793FA2620FEF790FA002067
:10226000FEF78DFA2420FEF78AFA0020FEF787FA9F
:102270002420FEF784FA0020FEF781FA2320FEF7DF
:102280007EFA0020FEF77BFAC420FEF76BFA62208C
:10229000FEF775FA0020FEF772FA0520FEF76FFAD6
:1022A0000020FEF76CFA8420FEF769FA0020FEF7A2
:1022B00066FAF020FEF763FA0020FEF760FA1820B5
:1022C000FEF75DFA0020FEF75AFAA420FEF757FA4F
:1022D0000020FEF754FA1820FEF751FA0020FEF70E
:1022E0004EFA5020FEF74BFA0020FEF748FA0C2079
:1022F000FEF745FA0020FEF742FA1720FEF73FFAF4
:102300000020FEF73CFA9520FEF739FA0020FEF790
:1023100036FAF320FEF733FA0020FEF730FAE62013
:10232000FEF72DFA0020FEF72AFAC520FEF71AFA6A
:102330003220FEF724FA0020FEF721FA4420FEF7AF
:102340001EFA0020FEF71BFA6520FEF718FA00209F
:10235000FEF715FA7620FEF712FA0020FEF70FFAC4
:102360008820FEF70CFA0020FEF709FAC620FEF7D7
:10237000F9F92020FEF703FA0020FEF700FA1720F3
:10238000FEF7FDF90020FEF7FAF90120FEF7F7F954
:102390000020FEF7F4F9C720FEF7E4F90020FEF76D
:1023A000EEF90020FEF7EBF90020FEF7E8F9002037
:1023B000FEF7E5F9C820FEF7D5F90020FEF7DFF9B2
:1023C0000020FEF7DCF90020FEF7D9F90020FEF727
:1023D000D6F9C920FEF7C6F90020FEF7D0F9002093
:1023E000FEF7CDF90020FEF7CAF90020FEF7C7F985
:1023F0000020FEF7C4F90020FEF7C1F90020FEF727
:10240000BEF90020FEF7BBF90020FEF7B8F9002066
:10241000FEF7B5F90020FEF7B2F90020FEF7AFF99C
:102420000020FEF7ACF90020FEF7A9F90020FEF726
:10243000A6F90020FEF7A3F9E020FEF793F9162095
:10244000FEF79DF90020FEF79AF91C20FEF797F998
:102450000020FEF794F92120FEF791F90020FEF705
:102460008EF93620FEF78BF90020FEF788F946201A
:10247000FEF785F90020FEF782F95220FEF77FF97A
:102480000020FEF77CF96420FEF779F90020FEF7C2
:1024900076F97A20FEF773F90020FEF770F98B20A9
:1024A000FEF76DF90020FEF76AF99920FEF767F94B
:1024B0000020FEF764F9A820FEF761F90020FEF77E
:1024C0005EF9B920FEF75BF90020FEF758F9C42049
:1024D000FEF755F90020FEF752F9CA20FEF74FF932
:1024E0000020FEF74CF9D220FEF749F90020FEF754
:1024F00046F9D920FEF743F90020FEF740F9E02025
:10250000FEF73DF90020FEF73AF9F320FEF737F920
:102510000020FEF734F9E120FEF724F91620FEF73B
:102520002EF90020FEF72BF91C20FEF728F90020D9
:10253000FEF725F92220FEF722F90020FEF71FF909
:102540003620FEF71CF90020FEF719F94520FEF7AA
:1025500016F90020FEF713F95220FEF710F90020BB
:10256000FEF70DF96420FEF70AF90020FEF707F9DF
:102570007A20FEF704F90020FEF701F98B20FEF720
:10258000FEF80020FEF7FBF89920FEF7F8F800208F
:10259000FEF7F5F8A820FEF7F2F80020FEF7EFF8B6
:1025A000B920FEF7ECF80020FEF7E9F8C420FEF7AA
:1025B000E6F80020FEF7E3F8CA20FEF7E0F8002076
:1025C000FEF7DDF8D220FEF7DAF80020FEF7D7F8A4
:1025D000D820FEF7D4F80020FEF7D1F8E020FEF76F
:1025E000CEF80020FEF7CBF8F320FEF7C8F8002065
:1025F000FEF7C5F8E220FEF7B5F80520FEF7BFF8B4
:102600000020FEF7BCF80B20FEF7B9F80020FEF71B
:10261000B6F81B20FEF7B3F80020FEF7B0F8342020
:10262000FEF7ADF80020FEF7AAF84420FEF7A7F861
:102630000020FEF7A4F84F20FEF7A1F80020FEF7D7
:102640009EF86120FEF79BF80020FEF798F87920AD
:10265000FEF795F80020FEF792F88820FEF78FF835
:102660000020FEF78CF89720FEF789F80020FEF78F
:1026700086F8A620FEF783F80020FEF780F8B72042
:10268000FEF77DF80020FEF77AF8C220FEF777F813
:102690000020FEF774F8C720FEF771F80020FEF75F
:1026A0006EF8D120FEF76BF80020FEF768F8D62010
:1026B000FEF765F80020FEF762F8DD20FEF75FF810
:1026C0000020FEF75CF8F320FEF759F80020FEF733
:1026D00056F8E320FEF746F80520FEF750F80020F4
:1026E000FEF74DF80A20FEF74AF80020FEF747F8FB
:1026F0001C20FEF744F8002000E0FDE2FEF73FF862
:102700003320FEF73CF80020FEF739F84420FEF7AE
:1027100036F80020FEF733F85020FEF730F800209E
:10272000FEF72DF86220FEF72AF80020FEF727F8C2
:102730007820FEF724F80020FEF721F88820FEF725
:102740001EF80020FEF71BF89720FEF718F800206F
:10275000FEF715F8A620FEF712F80020FEF70FF896
:10276000B720FEF70CF80020FEF709F8C220FEF7AC
:1027700006F80020FEF703F8C720FEF700F8002057
:10278000FDF7FDFFD120FDF7FAFF0020FDF7F7FF71
:10279000D520FDF7F4FF0020FDF7F1FFDD20FDF768
:1027A000EEFF0020FDF7EBFFF320FDF7E8FF002030
:1027B000FDF7E5FFE420FDF7D5FF0120FDF7DFFF82
:1027C0000020FDF7DCFF0120FDF7D9FF0020FDF719
:1027D000D6FF0220FDF7D3FF0020FDF7D0FF2A200F
:1027E000FDF7CDFF0020FDF7CAFF3C20FDF7C7FF36
:1027F0000020FDF7C4FF4B20FDF7C1FF0020FDF7CF
:10280000BEFF5D20FDF7BBFF0020FDF7B8FF742081
:10281000FDF7B5FF0020FDF7B2FF8420FDF7AFFF05
:102820000020FDF7ACFF9320FDF7A9FF0020FDF786
:10283000A6FFA220FDF7A3FF0020FDF7A0FFB32015
:10284000FDF79DFF0020FDF79AFFBE20FDF797FFE3
:102850000020FDF794FFC420FDF791FF0020FDF755
:102860008EFFCD20FDF78BFF0020FDF788FFD320E2
:10287000FDF785FF0020FDF782FFDD20FDF77FFFDC
:102880000020FDF77CFFF320FDF779FF0020FDF726
:1028900076FFE520FDF766FF0020FDF770FF0020C2
:1028A000FDF76DFF0020FDF76AFF0020FDF767FFD1
:1028B0000220FDF764FF0020FDF761FF2920FDF7EE
:1028C0005EFF0020FDF75BFF3C20FDF758FF002076
:1028D000FDF755FF4B20FDF752FF0020FDF74FFF9E
:1028E0005D20FDF74CFF0020FDF749FF7420FDF748
:1028F00046FF0020FDF743FF8420FDF740FF002046
:10290000FDF73DFF9320FDF73AFF0020FDF737FF6D
:10291000A220FDF734FF0020FDF731FFB320FDF7C3
:102920002EFF0020FDF72BFFBE20FDF728FF002023
:10293000FDF725FFC420FDF722FF0020FDF71FFF54
:10294000CD20FDF71CFF0020FDF719FFD320FDF778
:1029500016FF0020FDF713FFDC20FDF710FF00201D
:10296000FDF70DFFF320FDF70AFF0020FDF707FF3D
:10297000E620FDF7F7FE1120FDF701FF0020FDF72F
:10298000FEFE3420FDF7FBFE0020FDF7F8FE56208A
:10299000FDF7F5FE0020FDF7F2FE7620FDF7EFFED5
:1029A0000020FDF7ECFE7720FDF7E9FE0020FDF7A3
:1029B000E6FE6620FDF7E3FE0020FDF7E0FE88203E
:1029C000FDF7DDFE0020FDF7DAFE9920FDF7D7FECA
:1029D0000020FDF7D4FEBB20FDF7D1FE0020FDF75F
:1029E000CEFE9920FDF7CBFE0020FDF7C8FE662045
:1029F000FDF7C5FE0020FDF7C2FE5520FDF7BFFE26
:102A00000020FDF7BCFE5520FDF7B9FE0020FDF7C4
:102A1000B6FE4520FDF7B3FE0020FDF7B0FE4320D3
:102A2000FDF7ADFE0020FDF7AAFE4420FDF7A7FE4E
:102A30000020FDF7A4FEE720FDF794FE3220FDF70D
:102A40009EFE0020FDF79BFE5520FDF798FE00201E
:102A5000FDF795FE7620FDF792FE0020FDF78FFE34
:102A60006620FDF78CFE0020FDF789FE6720FDF74C
:102A700086FE0020FDF783FE6720FDF780FE002024
:102A8000FDF77DFE8720FDF77AFE0020FDF777FE3B
:102A90009920FDF774FE0020FDF771FEBB20FDF7C5
:102AA0006EFE0020FDF76BFE9920FDF768FE00200A
:102AB000FDF765FE7720FDF762FE0020FDF75FFE63
:102AC0004420FDF75CFE0020FDF759FE5620FDF77F
:102AD00056FE0020FDF753FE2320FDF750FE002098
:102AE000FDF74DFE3320FDF74AFE0020FDF747FEBF
:102AF0004520FDF744FE0020FDF741FEE820FDF7EC
:102B000031FE0020FDF73BFE0020FDF738FE992046
:102B1000FDF735FE0020FDF732FE8720FDF72FFE82
:102B20000020FDF72CFE8820FDF729FE0020FDF790
:102B300026FE7720FDF723FE0020FDF720FE66200D
:102B4000FDF71DFE0020FDF71AFE8820FDF717FE99
:102B50000020FDF714FEAA20FDF711FE0020FDF76E
:102B60000EFEBB20FDF70BFE0020FDF708FE9920AE
:102B7000FDF705FE0020FDF702FE6620FDF7FFFDD4
:102B80000020FDF7FCFD5520FDF7F9FD0020FDF7C5
:102B9000F6FD5520FDF7F3FD0020FDF7F0FD442084
:102BA000FDF7EDFD0020FDF7EAFD4420FDF7E7FD10
:102BB0000020FDF7E4FD5520FDF7E1FD0020FDF7C5
:102BC000DEFDE920FDF7CEFDAA20FDF7D8FD0020AF
:102BD000FDF7D5FD0020FDF7D2FD0020FDF7CFFD6C
:102BE0000020FDF7BFFDAA20FDF7C9FDCF20FDF7AE
:102BF000B9FD0020FDF7C3FD0020FDF7C0FD00205A
:102C0000FDF7BDFD0020FDF7BAFD0020FDF7B7FD83
:102C10000020FDF7B4FD0020FDF7B1FD0020FDF719
:102C2000AEFD0020FDF7ABFD0020FDF7A8FD002064
:102C3000FDF7A5FD0020FDF7A2FD0020FDF79FFD9B
:102C40000020FDF79CFD0020FDF799FD0020FDF719
:102C500096FD0020FDF793FDF020FDF783FD002099
:102C6000FDF78DFD5020FDF78AFD0020FDF787FD63
:102C70000020FDF784FD0020FDF781FDF320FDF726
:102C800071FD0020FDF77BFDF920FDF76BFD0620AF
:102C9000FDF775FD1020FDF772FD2920FDF76FFD92
:102CA0000020FDF76CFD3A20FDF75CFD5520FDF797
:102CB00066FD1120FDF756FD642002F063FF292018
:102CC000FDF750FD3520FDF74DFD0020FDF757FDC8
:102CD0005120FDF747FDFF20FDF751FD5320FDF783
:102CE00041FD2C20FDF74BFD5520FDF73BFD8220DB
:102CF000FDF745FD2C20FCE3B0427DD14FF470443C
:102D000055212046FDF77BFD651CAA212846FDF7CD
:102D100076FDA61C52213046FDF771FDE71C082107
:102D20003846FDF76CFD4FF2040C01216046FDF7BB
:102D300066FD0D214FF43040FDF761FD0D214BF292
:102D40000100FDF75CFD0D214BF20200FDF757FD80
:102D50004FF4364834214046FDF751FD34214BF203
:102D60000160FDF74CFD34214BF20260FDF747FD99
:102D70004FF431490D214846FDF741FD4BF2011A50
:102D80000D215046FDF73BFD0D214BF20210FDF7E2
:102D900036FD34214FF43740FDF731FD34214BF23D
:102DA0000170FDF72CFD34214BF20270FDF727FD79
:102DB00000214FF43240FDF722FD00214BF20120AB
:102DC000FDF71DFD00214BF20220FDF718FD242127
:102DD0004FF43840FDF713FD24214BF60100FDF7B9
:102DE0000EFD24214BF60200FDF709FD01214FF4F1
:102DF0003F40FDF704FD00E0FEE30F214FF43340B8
:102E0000FDF7FDFC0F214BF20130FDF7F8FC0F211F
:102E10004BF20230FDF7F3FC34214FF43940FDF75B
:102E2000EEFC34214BF60110FDF7E9FC34214BF6A2
:102E30000210FDF7E4FC08214FF43540FDF7DFFCFC
:102E400008214BF20150FDF7DAFC08214BF2025049
:102E5000FDF7D5FC03214FF44240FDF7D0FC2421BF
:102E60004FF43A40FDF7CBFC24214BF60120FDF74F
:102E7000C6FC24214BF60220FDF7C1FC00214FF4D3
:102E80003C40FDF7BCFC78214BF60140FDF7B7FC58
:102E900000214BF60240FDF7B2FC00214FF43D400B
:102EA000FDF7ADFC78214BF60150FDF7A8FC0021A1
:102EB0004BF60250FDF7A3FC00214FF43E40FDF716
:102EC0009EFC64214BF60160FDF799FC00214FF454
:102ED0005140FDF794FC33214DF20110FDF78FFCBA
:102EE00000214DF20210FDF78AFC34214DF203104F
:102EF000FDF785FC00214DF20410FDF780FC3A211E
:102F00004DF20510FDF77BFC00214DF20610FDF798
:102F100076FC4A214DF20710FDF771FC00214DF2BD
:102F20000810FDF76CFC5C214DF20910FDF767FC01
:102F300000214DF20A10FDF762FC81214DF20B10C9
:102F4000FDF75DFC00214DF20C10FDF758FCA621A9
:102F50004DF20D10FDF753FC00214DF20E10FDF760
:102F60004EFCE5214DF20F10FDF749FC01214DF219
:102F70001010FDF744FC13214DF21110FDF73FFC3A
:102F800001214DF21210FDF73AFC54214DF21310BD
:102F9000FDF735FC01214DF21410FDF730FC8221C4
:102FA0004DF21510FDF72BFC01214DF21610FDF727
:102FB00026FCCA214DF21710FDF721FC02214DF22B
:102FC0001810FDF71CFC00214DF21910FDF717FC3D
:102FD00002214DF21A10FDF712FC01214DF21B10D7
:102FE000FDF70DFC02214DF21C10FDF708FC342109
:102FF0004DF21D10FDF703FC02214DF21E10FDF7EE
:10300000FEFB67214DF21F10FDF7F9FB02214DF287
:103010002010FDF7F4FB84214DF22110FDF7EFFBAA
:1030200002214DF22210FDF7EAFBA4214DF22310FC
:10303000FDF7E5FB02214DF22410FDF7E0FBB7217F
:103040004DF22510FDF7DBFB02214DF22610FDF7B6
:10305000D6FBCF214DF22710FDF7D1FB02214DF217
:103060002810FDF7CCFBDE214DF22910FDF7C7FB40
:1030700002214DF22A10FDF7C2FBF2214DF22B1076
:10308000FDF7BDFB02214DF22C10FDF7B8FBFE2130
:103090004DF22D10FDF7B3FB03214DF22E10FDF77D
:1030A000AEFB10214DF22F10FDF7A9FB03214DF2CD
:1030B0003010FDF7A4FB33214DF23110FDF79FFBDB
:1030C00003214DF23210FDF79AFB6D214DF23310C2
:1030D000FDF795FB00214FF45240FDF790FB3321A3
:1030E0004DF20120FDF78BFB00214DF20220FDF790
:1030F00086FB34214DF20320FDF781FB00214DF2C8
:103100000420FDF77CFB3A214DF20520FDF777FB0B
:1031100000214DF20620FDF772FB4A214DF20720F7
:10312000FDF76DFB00214DF20820FDF768FB5C21E7
:103130004DF20920FDF763FB00214DF20A20FDF757
:103140005EFB81214DF20B20FDF759FB00214DF272
:103150000C20FDF754FBA6214DF20D20FDF74FFB8F
:1031600000214DF20E20FDF74AFBE5214DF20F2024
:10317000FDF745FB01214DF21020FDF740FB132127
:103180004DF21120FDF73BFB01214DF21220FDF71E
:1031900036FB54214DF21320FDF731FB01214DF296
:1031A0001420FDF72CFB82214DF21520FDF727FBA3
:1031B00001214DF21620FDF722FBCA214DF2172006
:1031C000FDF71DFB02214DF21820FDF718FB002131
:1031D0004DF21920FDF713FB02214DF21A20FDF7E5
:1031E0000EFB01214DF21B20FDF709FB02214DF2E0
:1031F0001C20FDF704FB34214DF21D20FDF7FFFAE2
:1032000002214DF21E20FDF7FAFA67214DF21F2030
:10321000FDF7F5FA02214DF22020FDF7F0FA8421A6
:103220004DF22120FDF7EBFA02214DF22220FDF7AD
:10323000E6FAA4214DF22320FDF7E1FA02214DF236
:103240002420FDF7DCFAB7214DF22520FDF7D7FA4F
:1032500002214DF22620FDF7D2FACF214DF2272090
:10326000FDF7CDFA02214DF22820FDF7C8FADE2144
:103270004DF22920FDF7C3FA02214DF22A20FDF775
:10328000BEFAF2214DF22B20FDF7B9FA02214DF2E0
:103290002C20FDF7B4FAFE214DF22D20FDF7AFFAF8
:1032A00003214DF22E20FDF7AAFA10214DF22F2016
:1032B000FDF7A5FA03214DF23020FDF7A0FA3321E6
:1032C0004DF23120FDF79BFA03214DF23220FDF73C
:1032D00096FA6D214DF23320FDF791FA00214FF45B
:1032E0005340FDF78CFA33214DF20130FDF787FA98
:1032F00000214DF20230FDF782FA34214DF2033005
:10330000FDF77DFA00214DF20430FDF778FA3A21FD
:103310004DF20530FDF773FA00214DF20630FDF74E
:103320006EFA4A214DF20730FDF769FA00214DF29D
:103330000830FDF764FA5C214DF20930FDF75FFAC1
:1033400000214DF20A30FDF75AFA81214DF20B307F
:10335000FDF755FA00214DF20C30FDF750FAA62189
:103360004DF20D30FDF74BFA00214DF20E30FDF716
:1033700046FAE5214DF20F30FDF741FA01214DF2F9
:103380001030FDF73CFA13214DF21130FDF737FAFA
:1033900001214DF21230FDF732FA54214DF2133073
:1033A000FDF72DFA01214DF21430FDF728FA8221A4
:1033B0004DF21530FDF723FA01214DF21630FDF7DD
:1033C0001EFACA214DF21730FDF719FA02214DF20B
:1033D0001830FDF714FA00214DF21930FDF70FFAFD
:1033E00002214DF21A30FDF70AFA01214DF21B308D
:1033F000FDF705FA02214DF21C30FDF700FA3421E9
:103400004DF21D30FDF7FBF902214DF21E30FDF7A4
:10341000F6F967214DF21F30FDF7F1F902214DF267
:103420002030FDF7ECF984214DF22130FDF7E7F96A
:1034300002214DF22230FDF7E2F9A4214DF22330B2
:10344000FDF7DDF902214DF22430FDF7D8F9B7215F
:103450004DF22530FDF7D3F902214DF22630FDF76C
:10346000CEF9CF214DF22730FDF7C9F902214DF2F7
:103470002830FDF7C4F9DE214DF22930FDF7BFF900
:1034800002214DF22A30FDF7BAF9F2214DF22B302C
:10349000FDF7B5F902214DF22C30FDF7B0F9FE2110
:1034A0004DF22D30FDF7ABF903214DF22E30FDF733
:1034B000A6F910214DF22F30FDF7A1F903214DF2AD
:1034C0003030FDF79CF933214DF23130FDF797F99B
:1034D00003214DF23230FDF792F96D214DF2333078
:1034E000FDF78DF900214FF45440FDF788F93321A1
:1034F00000E080E34DF20140FDF781F900214DF23B
:103500000240FDF77CF934214DF20340FDF777F9D5
:1035100000214DF20440FDF772F93A214DF20540C9
:10352000FDF76DF900214DF20640FDF768F94A21DB
:103530004DF20740FDF763F900214DF20840FDF719
:103540005EF95C214DF20940FDF759F900214DF279
:103550000A40FDF754F981214DF20B40FDF74FF978
:1035600000214DF20C40FDF74AF9A6214DF20D4025
:10357000FDF745F900214DF20E40FDF740F9E52138
:103580004DF20F40FDF73BF901214DF21040FDF7E0
:1035900036F913214DF21140FDF731F901214DF2B9
:1035A0001240FDF72CF954214DF21340FDF727F995
:1035B00001214DF21440FDF722F982214DF2154010
:1035C000FDF71DF901214DF21640FDF718F9CA214A
:1035D0004DF21740FDF713F902214DF21840FDF7A7
:1035E0000EF900214DF21940FDF709F902214DF2C3
:1035F0001A40FDF704F900E001E301214DF21B4000
:10360000FDF7FDF802214DF21C40FDF7F8F83421DA
:103610004DF21D40FDF7F3F802214DF21E40FDF77B
:10362000EEF867214DF21F40FDF7E9F802214DF257
:103630002040FDF7E4F884214DF22140FDF7DFF84A
:1036400002214DF22240FDF7DAF8A4214DF2234089
:10365000FDF7D5F802214DF22440FDF7D0F8B7214F
:103660004DF22540FDF7CBF802214DF22640FDF743
:10367000C6F8CF214DF22740FDF7C1F802214DF2E7
:103680002840FDF7BCF8DE214DF22940FDF7B7F8E0
:1036900002214DF22A40FDF7B2F8F2214DF22B4003
:1036A000FDF7ADF802214DF22C40FDF7A8F8FE2100
:1036B0004DF22D40FDF7A3F803214DF22E40FDF70A
:1036C0009EF810214DF22F40FDF799F803214DF29D
:1036D0003040FDF794F833214DF23140FDF78FF87B
:1036E00003214DF23240FDF78AF86D214DF233404F
:1036F000FDF785F800214FF45540FDF780F83321A0
:103700004DF20150FDF77BF800214DF20250FDF71C
:1037100076F834214DF20350FDF771F800214DF297
:103720000450FDF76CF83A214DF20550FDF767F8AB
:1037300000214DF20650FDF762F84A214DF2075084
:10374000FDF75DF800214DF20850FDF758F85C21B7
:103750004DF20950FDF753F800214DF20A50FDF7E4
:103760004EF881214DF20B50FDF749F800214DF242
:103770000C50FDF744F8A6214DF20D50FDF73FF82F
:1037800000214DF20E50FDF73AF8E5214DF20F50B1
:10379000FDF735F801214DF21050FDF730F81321F7
:1037A0004DF21150FDF72BF801214DF21250FDF7AB
:1037B00026F854214DF21350FDF721F801214DF266
:1037C0001450FDF71CF882214DF21550FDF717F843
:1037D00001214DF21650FDF712F8CA214DF2175093
:1037E000FDF70DF802214DF21850FDF708F8002101
:1037F0004DF21950FDF703F802214DF21A50FCF773
:10380000FEFF01214DF21B50FCF7F9FF02214DF2A2
:103810001C50FCF7F4FF34214DF21D50FCF7EFFF74
:1038200002214DF21E50FCF7EAFF67214DF21F50B6
:10383000FCF7E5FF02214DF22050FCF7E0FF842168
:103840004DF22150FCF7DBFF02214DF22250FCF734
:10385000D6FFA4214DF22350FCF7D1FF02214DF2F7
:103860002450FCF7CCFFB7214DF22550FCF7C7FFE1
:1038700002214DF22650FCF7C2FFCF214DF2275016
:10388000FCF7BDFF02214DF22850FCF7B8FFDE2106
:103890004DF22950FCF7B3FF02214DF22A50FCF7FC
:1038A000AEFFF2214DF22B50FCF7A9FF02214DF2A1
:1038B0002C50FCF7A4FFFE214DF22D50FCF79FFF8A
:1038C00003214DF22E50FCF79AFF10214DF22F509C
:1038D000FCF795FF03214DF23050FCF790FF3321A8
:1038E0004DF23150FCF78BFF03214DF23250FCF7C3
:1038F00086FF6D214DF23350FCF781FF00214FF41C
:103900005640FCF77CFF33214DF20160FCF777FF56
:1039100000214DF20260FCF772FF34214DF203608A
:10392000FCF76DFF00214DF20460FCF768FF3A21BF
:103930004DF20560FCF763FF00214DF20660FCF7D5
:103940005EFF4A214DF20760FCF759FF00214DF25E
:103950000860FCF754FF5C214DF20960FCF74FFF53
:1039600000214DF20A60FCF74AFF81214DF20B6005
:10397000FCF745FF00214DF20C60FCF740FFA6214B
:103980004DF20D60FCF73BFF00214DF20E60FCF79D
:1039900036FFE5214DF20F60FCF731FF01214DF2BA
:1039A0001060FCF72CFF13214DF21160FCF727FF8C
:1039B00001214DF21260FCF722FF54214DF21360F9
:1039C000FCF71DFF01214DF21460FCF718FF822166
:1039D0004DF21560FCF713FF01214DF21660FCF764
:1039E0000EFFCA214DF21760FCF709FF02214DF2CC
:1039F0001860FCF704FF00214DF21960FCF7FFFE90
:103A000002214DF21A60FCF7FAFE01214DF21B6013
:103A1000FCF7F5FE02214DF21C60FCF7F0FE3421AC
:103A20004DF21D60FCF7EBFE02214DF21E60FCF72B
:103A3000E6FE67214DF21F60FCF7E1FE02214DF228
:103A40002060FCF7DCFE84214DF22160FCF7D7FEFC
:103A500002214DF22260FCF7D2FEA4214DF2236038
:103A6000FCF7CDFE02214DF22460FCF7C8FEB72121
:103A70004DF22560FCF7C3FE02214DF22660FCF7F3
:103A8000BEFECF214DF22760FCF7B9FE02214DF2B8
:103A90002860FCF7B4FEDE214DF22960FCF7AFFE92
:103AA00002214DF22A60FCF7AAFEF2214DF22B60B2
:103AB000FCF7A5FE02214DF22C60FCF7A0FEFE21D2
:103AC0004DF22D60FCF79BFE03214DF22E60FCF7BA
:103AD00096FE10214DF22F60FCF791FE03214DF26E
:103AE0003060FCF78CFE33214DF23160FCF787FE2D
:103AF00003214DF23260FCF782FE6D214DF23360FE
:103B0000FCF77DFE55212046FCF779FEAA212846C8
:103B1000FCF775FE52213046FCF771FE082138464D
:103B2000FCF76DFE00216046FCF769FECC2148469B
:103B3000FCF765FE00215046FCF761FE052140467A
:103B4000FCF75DFE70214FF43740FCF758FE702102
:103B50004BF20170FCF753FE01214FF43840FCF7A3
:103B60004EFE03214BF60100FCF749FE03214BF604
:103B70000200FCF744FE03214BF60300FCF73FFE76
:103B800002214FF43C40FCF73AFE00214BF6014085
:103B9000FCF735FE00214BF60240FCF730FED02149
:103BA0004FF44940FCF72BFE02214CF60110FCF7C4
:103BB00026FE50214CF60210FCF721FE50214CF657
:103BC0000310FCF71CFE50214CF60410FCF717FE06
:103BD00000214FF45450FCF712FE55214FF4685069
:103BE000FCF70DFE4FF48850FCF7BCFD782001F087
:103BF000B2FF4FF42450FCF7B5FD01F04CBAA0F52C
:103C000013414FF4E06740F23F154FF4274925393F
:103C100035D0FE1DA0F513414FF4017828397DD031
:103C2000A0F513414FF488794FF41C5A203976D00F
:103C3000A0F51341313973D0A0F5A841083970D0EF
:103C4000A0F5A8514FF4407905396BD0A0F5354166
:103C5000053968D0A0F5454105397DD0A0F5094169
:103C600089397AD0A0F58A41313977D0A0F58A41D7
:103C7000353974D0A0F5C851633971D0BDE747F626
:103C8000F001E520FCF7BBFD21460120FCF7B7FD64
:103C900039460220FCF7B3FD41F230010320FCF766
:103CA000AEFD00210420FCF7AAFD40F2022108200D
:103CB000FCF7A5FD00210920FCF7A1FD00210A2049
:103CC000FCF79DFD00210C20FCF799FD00210D2043
:103CD000FCF795FD00210F20FCF791FD002110203D
:103CE000FCF78DFD07211120FCF789FD0021122032
:103CF000FCF785FD00211320FCF781FD0021072042
:103D0000FCF77DFD41F290611020FCF778FD40F258
:103D100027211120FCF773FD9D2105E088E043E198
:103D2000E7E1BAE254E3FCE31220FCF768FD4FF44C
:103D3000C8511320FCF763FD25212920FCF75FFD06
:103D40000D212B20FCF75BFD07213020FCF757FDF0
:103D500040F20331312004E0FDE3FDE3FDE3FDE348
:103D6000FDE3FCF74CFD03213220FCF748FD40F257
:103D700006213520FCF743FD08213620FCF73FFDE6
:103D800040F206413720FCF73AFD4FF441713820EC
:103D9000FCF735FD07213920FCF731FD40F20261C7
:103DA0003C20FCF72CFD08213D20FCF728FD0021DC
:103DB0005020FCF724FDEF215120FCF720FD0021CD
:103DC0005220FCF71CFD29465320FCF718FD4946FC
:103DD0006020FCF714FD01216120FCF710FD00219B
:103DE0006A20FCF70CFD00218020FCF708FD002173
:103DF0008120FCF704FD00218220FCF700FD00215A
:103E00008320FCF7FCFC00218420FCF7F8FC002157
:103E10008520FCF7F4FC10219020FCF7F0FC4FF417
:103E2000C0619220FCF7EBFC40F233110720FDE368
:103E300041F28F01EC20FCF7E2FC41F23421EF204B
:103E4000FCF7DDFC21460120FCF7D9FC39460220B5
:103E5000FCF7D5FC41F230010320FCF7D0FC002137
:103E60000420FCF7CCFC40F202210820FCF7C7FC40
:103E700000210920FCF7C3FC00210A20FCF7BFFC4D
:103E800001210C20FCF7BBFC00210D20FCF7B7FC46
:103E900000210F20FCF7B3FC00211020FCF7AFFC41
:103EA00007211120FCF7ABFC00211220FCF7A7FC36
:103EB00000211320FCF7A3FC01210720FCF79FFC45
:103EC000322001F05FFE41F290411020FCF797FC98
:103ED00040F227211120FCF792FC322001F052FE23
:103EE0008A211220FCF78BFC322001F04BFE4FF4AC
:103EF000D0511320FCF783FC06212920FCF77FFC1E
:103F00000D212B20FCF77BFC322001F03BFE002131
:103F10002020FCF774FC00212120FCF770FC3220EB
:103F200001F030FE00213020FCF769FC40F2046112
:103F30003120FCF764FC40F205313220FCF75FFCD5
:103F400000213520FCF75BFC40F609413620FCF7E8
:103F500056FC41463720FCF752FC40F20131382034
:103F6000FCF74DFC31463920FCF749FC00213C2090
:103F7000FCF745FC40F60A213D20FCF740FC3220CE
:103F800001F000FE00215020FCF739FCEF21512008
:103F9000FCF735FC00215220FCF731FC2946532068
:103FA000FCF72DFC49464DE100210846FCF727FCB3
:103FB00021460120FCF723FC39460220FCF71FFCB8
:103FC00041F230010320FCF71AFC00210420FCF729
:103FD00016FC40F202210820FCF711FC0021092008
:103FE000FCF70DFC00210A20FCF709FC01210C2044
:103FF000FCF705FC00210D20FCF701FC00210F203F
:10400000FCF7FDFB322001F0BDFD40F2011107205D
:10401000FCF7F5FB322001F0B5FD4FF4865110207E
:10402000FCF7EDFB07211120FCF7E9FB4C46494664
:104030001220FCF7E4FB4FF430611320FCF7DFFBA8
:1040400000212920FCF7DBFB44F210012B20FCF7B8
:10405000D6FB00215020FCF7D2FBEF215120FCF7CA
:10406000CEFB00215220FCF7CAFB29465320FCF767
:10407000C6FB51466020FCF7C2FB01216120FCF722
:10408000BEFB00216A20FCF7BAFB00218020FCF770
:10409000B6FB00218120FCF7B2FB00218220FCF757
:1040A000AEFB00218320FCF7AAFB00218420FCF753
:1040B000A6FB00218520FCF7A2FB10219020FCF735
:1040C0009EFB00219220FCF79AFB01219320FCF734
:1040D00096FB21469520FCF792FB00219720FCF7E8
:1040E0008EFB00219820FCF78AFB40F27311072019
:1040F0007CE341F21401E720FCF781FB214601201B
:10410000FCF77DFB4FF400710220FCF778FB41F2D5
:1041100038010320FCF773FB40F202210820FCF772
:104120006EFB00210920FCF76AFB00210A20FCF746
:1041300066FB00210C20FCF762FB00210D20FCF740
:104140005EFB00210F20FCF75AFB00211020FCF73A
:1041500056FB07211120FCF752FB00211220FCF72F
:104160004EFB00211320FCF74AFBC82001F00AFD9A
:1041700041F290611020FCF742FB40F22721112010
:10418000FCF73DFB322001F0FDFC0C211220FCF776
:1041900036FB322001F0F6FC4FF400611320FCF7EF
:1041A0002EFB11212920FCF72AFB0B212B20FCF7E9
:1041B00026FB322001F0E6FC00212020FCF71FFB4B
:1041C00029462120FCF71BFB00213020FCF717FBC0
:1041D0004FF4837421463120FCF711FB002132207B
:1041E000FCF70DFB41463520FCF709FB41F20A6163
:1041F0003620FCF704FB31463720FCF700FB214654
:104200003820FCF7FCFA31463920FCF7F8FA40F286
:1042100002413C20FCF7F3FA40F60F413D20FCF749
:10422000EEFA00215020FCF7EAFAEF215120FCF7CA
:10423000E6FA00215220FCF7E2FA29465320FCF767
:10424000DEFA51466020FCF7DAFA01216120FCF722
:10425000D6FA00216A20FCF7D2FA00218020FCF770
:10426000CEFA00218120FCF7CAFA00218220FCF757
:10427000C6FA00218320FCF7C2FA00218420FCF753
:10428000BEFA00218520FCF7BAFA10219020FCF735
:10429000B6FA4FF4C0619220FEE321460120FCF7FC
:1042A000AEFA39460220FCF7AAFA41F230010320A7
:1042B000FCF7A5FA00210420FCF7A1FA40F207213F
:1042C0000820FCF79CFA00210920FCF798FA00214D
:1042D0000A20FCF794FA00210C20FCF790FA002148
:1042E0000D20FCF78CFA00210F20FCF788FA14202F
:1042F00001F048FC41F2B0611020FCF780FA012186
:104300001120FCF77CFA01211720FCF778FA4FF412
:104310009C711220FCF773FA4FF400611320FCF734
:104320006EFA09212920FCF76AFA09212A20FCF7F4
:1043300066FA0021A420FCF762FA00215020FCF765
:104340005EFAEF215120FCF75AFA00215220FCF7C7
:1043500056FA29465320FCF752FA51466020FCF7E2
:104360004EFA01216120FCF74AFA00216A20FCF78D
:1043700046FA00218020FCF742FA00218120FCF758
:104380003EFA00218220FCF73AFA00218320FCF754
:1043900036FA00218420FCF732FA00218520FCF750
:1043A0002EFA13219020FCF72AFA00219220FCF724
:1043B00026FA03219320FCF722FA49469520FCF7C0
:1043C0001EFA40F273110720FCF719FA32200EE1B1
:1043D00000210720FCF713FA322001F0D3FB4FF441
:1043E0008E711220FCF70BFA0121A420FCF707FACA
:1043F0000F210820FCF703FA08210A20FCF7FFF937
:1044000008210D20FCF7FBF931463020FCF7F7F9C5
:1044100007213120FCF7F3F940F203613220FCF769
:10442000EEF939463320FCF7EAF940F20221342054
:10443000FCF7E5F902213520FCF7E1F941F60F71AF
:104440003620FCF7DCF931463720FCF7D8F900219B
:104450003820FCF7D4F900213920FCF7D0F9314697
:104460003A20FCF7CCF900213B20FCF7C8F90721E2
:104470003C20FCF7C4F900213D20FCF7C0F93220B4
:1044800001F080FB01210720FCF7B9F90121172079
:10449000FCF7B5F9322001F075FB4FF4BD51102047
:1044A000FCF7ADF940F217211120FCF7A8F94FF401
:1044B0008F711220FCF7A3F94FF470611320FCF701
:1044C0009EF900212A20FCF79AF90A212920FCF7FD
:1044D00096F94FF49F711220FCF791F900215020BA
:1044E000FCF78DF9EF215120FCF789F900215220CA
:1044F000FCF785F929465320FCF781F951466020E5
:10450000FCF77DF901216120FCF779F900216A208F
:10451000FCF775F900218020FCF771F9002181205A
:1045200000E067E0FCF76BF900218220FCF767F9F7
:1045300000218320FCF763F900218420FCF75FF958
:1045400000218520FCF75BF913219020FCF757F937
:104550004946922004E04AE111E2C4E278E3FDE337
:10456000FCF74DF905219320FCF749F9002195202E
:10457000FCF745F900219720FCF741F9002198202C
:10458000FCF73DF921460120FCF739F939460220B4
:10459000FCF735F941F238010320FCF730F900212E
:1045A0000420FCF72CF900210C20FCF728F900214D
:1045B0000F20FCF724F900212020FCF720F900212E
:1045C0002120FCF71CF921210720FCF718F9142001
:1045D00001F0D8FA61210720FCF711F9142001F04D
:1045E000D1FA40F273110720FCF709F9142001F009
:1045F000C9FA2CE300210846FCF701F9002108461E
:10460000FCF7FDF800210846FCF7F9F80021084600
:10461000FCF7F5F80121A420FCF7F1F8142001F0D3
:10462000B1FA51466020FCF7EAF800E0DAE040F227
:10463000022631460820FCF7E2F84FF405713020DD
:10464000FCF7DDF843F215713120FCF7D8F840F2A1
:1046500004613220FCF7D3F840F616613320FCF7F2
:10466000CEF842F211213420FCF7C9F84FF4A851DA
:104670003520FCF7C4F848F207513620FCF7BFF8A4
:1046800041F207413720FCF7BAF841F203413820E4
:10469000FCF7B5F820213920FCF7B1F81A21902059
:1046A000FCF7ADF800211020FCF7A9F80721112034
:1046B000FCF7A5F800211220FCF7A1F80021132037
:1046C000FCF79DF8142001F05DFA4FF4E66110202C
:1046D000FCF795F840F237111120FCF790F8142000
:1046E00001F050FA4FF4DC711220FCF788F8142026
:1046F00001F048FA4FF470611320FCF780F8802134
:104700002A20FCF77CF848212920FCF778F81420AF
:1047100001F038FA21460120FCF771F839460220F1
:10472000FCF76DF841F238010320FCF768F83146D8
:104730000820FCF764F800210A20FCF760F800214B
:104740000C20FCF75CF800210D20FCF758F8302114
:104750000E20FCF754F800215020FCF750F8EF2110
:104760005120FCF74CF800215220FCF748F829466C
:104770005320FCF744F851466020FCF740F8012133
:104780006120FCF73CF800216A20FCF738F8112181
:104790009020FCF734F84FF4C0619220FCF72FF81A
:1047A00040F202419320FCF72AF802219420FCF702
:1047B00026F8142001F0E6F901210720FCF71FF884
:1047C000142001F0DFF961210720FCF718F840F20E
:1047D00073110720FCF713F800212020FCF70FF8D5
:1047E00000212120FCF70BF8222100202DE20021DE
:1047F0000846FCF704F800210846FCF700F81420EE
:1048000001F0C0F900210846FBF7F9FF0021084636
:10481000FBF7F5FF00210846FBF7F1FF00210846F2
:10482000FBF7EDFF0121A420FBF7E9FF142001F0C5
:10483000A9F951466020FBF7E2FF40F60601082087
:10484000FBF7DDFF40F2037739463020FBF7D7FF57
:1048500001213120FBF7D3FF04213220FBF7CFFFEA
:104860004FF481713320FBF7CAFF4E46494634208E
:10487000FBF7C5FF40F203113520FBF7C0FF1F21F6
:104880003620FBF7BCFF39463720FBF7B8FF012184
:104890003820FBF7B4FF04213920FBF7B0FF1521C6
:1048A0009020FBF7ACFF4FF482611020FBF7A7FFCD
:1048B00040F247211120FBF7A2FF4FF4DE711220D6
:1048C000FBF79DFF4FF460611320FBF798FF782002
:1048D00001F058F921460120FBF791FF4FF40071D8
:1048E0000220FBF78CFF41F230010320FBF787FF2A
:1048F00008210A20FBF783FF00210C20FBF77FFF34
:1049000020210E20FBF77BFF00210F20FBF777FF14
:1049100000212020FBF773FF00212120FBF76FFF10
:104920003D212A20FBF76BFF142001F02BF92D21EC
:104930002920FBF764FF00215020FBF760FF4DF2B8
:10494000EF015120FBF75BFF00215220FBF757FFDF
:1049500029465320FBF753FF00216120FBF74FFF4F
:1049600000216A20FBF74BFF31469220FBF747FFFF
:1049700005219320FBF743FF2146FFF7B8BB012138
:104980000020FBF73CFF4AF6A4010320FBF737FFAA
:1049900000210C20FBF733FF40F60C010D20FBF744
:1049A0002EFF4FF42C510E20FBF729FFB0211E20C3
:1049B000FBF725FF42F63F310120FBF720FF4FF4C4
:1049C000C0610220FBF71BFF00211020FBF717FF3F
:1049D00046F278011120FBF712FF00210520FBF7BA
:1049E0000EFF00210620FBF70AFF4EF61C71162071
:1049F000FBF705FF03211720FBF701FF40F23321EE
:104A00000720FBF7FCFE00210B20FBF7F8FE00213E
:104A10000F20FBF7F4FE00214120FBF7F0FE002100
:104A20004220FBF7ECFE00214820FBF7E8FE294678
:104A30004920FBF7E4FE00214A20FBF7E0FE0021BD
:104A40004B20FBF7DCFE4FF46F414420FBF7D7FE11
:104A500000214520FBF7D3FE29464620FBF7CFFE79
:104A600031463020FBF7CBFE444641463120FBF770
:104A7000C6FE21463220FBF7C2FE40F2025529460F
:104A80003320FBF7BCFE691D3420FBF7B8FE21463E
:104A90003520FBF7B4FE00E07EE121463620FBF72F
:104AA000AEFE29463720FBF7AAFE40F2023421462B
:104AB0003A20FBF7A4FE21463B20FBF7A0FE002195
:104AC0002320FBF79CFE00212420FBF798FE4FF4E7
:104AD00000412520FBF793FE00214F20FBF78FFEBE
:104AE00000214E20B1E001210020FBF788FE0A20C2
:104AF00001F048F841F228611020FBF780FE0E21FA
:104B00001220FBF77CFE40F639211320FBF777FEDD
:104B10000A2001F037F840211120FBF770FE5021E8
:104B20001520FBF76CFE0A2001F02CF81E21122044
:104B3000FBF765FE0A2001F025F84FF4B151102073
:104B4000FBF75DFE42F639211320FBF758FE0A20E1
:104B500001F018F821460120FBF751FE49460220DA
:104B6000FBF74DFE41F238010320FBF748FE40F20F
:104B700002210820FBF743FE08210A20FBF73FFE35
:104B800000213020FBF73BFE40F202413120FBF7D1
:104B900036FE4FF483713220FBF731FE40F20351B1
:104BA0003320FBF72CFE4FF482713420FBF727FEF5
:104BB00040F201313520FBF722FE31463620FBF76B
:104BC0001EFE40F205313720FBF719FE4FF402714B
:104BD0003820FBF714FE40F60B713920FBF70FFE6F
:104BE00002214120FBF70BFE51466020FBF707FE38
:104BF00001216120FBF703FE4FF404719020FBF7C5
:104C0000FEFD4FF485719220FBF7F9FD04219320FE
:104C1000FBF7F5FD2146A020FBF7F1FD0121072060
:104C2000FBF7EDFD21210720FBF7E9FD23210720FC
:104C3000FBF7E5FD33210720FBF7E1FD40F23311DF
:104C40000720FBF7DCFD0021A020FBF7D8FD22E2C6
:104C500030211520FBF7D3FD10219A20FBF7CFFD63
:104C600020211120FBF7CBFD43F228411020FBF758
:104C7000C6FD02211220FBF7C2FD41F238011320CC
:104C8000FBF7BDFD282000F07DFF12210846FBF751
:104C9000B6FD282000F076FF43F220411020FBF7FC
:104CA000AEFD43F238011320FBF7A9FD462000F0CA
:104CB00069FF00213020FBF7A2FD40F202413120C4
:104CC000FBF79DFD40F207313220FBF798FD4FF4D2
:104CD00041713320FBF793FD04213420FBF78FFD56
:104CE00040F201413520FBF78AFD31463620FBF7C3
:104CF00086FD40F205313720FBF781FD4FF4C26598
:104D000029463820FBF77BFD29463920FBF777FD44
:104D100021460120FBF773FD49460220FBF76FFD9A
:104D200041F230010320FBF76AFD40F6080108203C
:104D3000FBF765FD08210A20FBF761FD5146602065
:104D4000FBF75DFD01216120FBF759FD4FF49F71D9
:104D50009020FBF754FD2146922000E021E0FBF774
:104D60004EFD21469320FBF74AFD4FF44051A02011
:104D7000FBF745FD1021A320FBF741FD0121072092
:104D8000FBF73DFD21210720FBF739FD23210720FB
:104D9000FBF735FD33210720FBF731FD40F23311DE
:104DA000EBE5E220FBF7DEFC2746F84C27616515B2
:104DB0006561DFF8DC831D21C8F80010802666617C
:104DC00026612561276165610220C8F800006661DF
:104DD00026612561276165610420C8F800006661CD
:104DE00026612561642000F0B6FEE020FBF7BAFCE6
:104DF000276165614FF00109C8F80090666126617E
:104E000025610A2000F0BEFEE020FBF7ABFC276125
:104E100065614FF0030AC8F800A06661266125614C
:104E20000C2000F0AFFE0120FBF79CFC0A2000F0F4
:104E3000A9FEE620FBF796FC276165612F21C8F8E3
:104E4000001066612661256127616561FF20C8F851
:104E5000000066612661256127616561C8F8000070
:104E6000666126612561B020FBF77CFC27616561E6
:104E70002021C8F8001066612661256127616561FF
:104E80004FF0000CC8F800C06661266125612761FB
:104E90006561C8F800A066612661256127616561CA
:104EA00040F21F31C8F80010666126612561276154
:104EB0006561C8F8009066612661256127616561BA
:104EC00040F2DF11C8F80010666126612561276194
:104ED0006561C8F800C0666126612561B420FBF7F2
:104EE00041FC276165610420C8F800006661266105
:104EF00025612761656140F21F414046C8F80010F6
:104F000066612661256127616561C8F800C0666138
:104F100026612561276165612E21C8F80010666150
:104F20002661256127616561C0F800C06661266160
:104F3000256127616561C0F800C066612661256151
:104F400027616561C0F800C066612661256127613F
:104F50006561C0F800C0666126612561B620FBF777
:104F600001FC276165610220C8F8000066612661C6
:104F70002561276165614FF403714046C8F8001050
:104F800066612661256127616561C8F800C06661B8
:104F900026612561276165611721C8F800106661E7
:104FA00026612561276165611521016066612661C1
:104FB000256127616561C0F800C0666126612561D1
:104FC00027616561C0F800C0666126612561F02037
:104FD000FBF7C8FB27616561C8F800A06661266120
:104FE00025612920FBF7BEFBD020FBF7BBFB276127
:104FF0006561C8F800C0666126612561BE20FBF7C7
:10500000B1FB276165610521C8F800106661266162
:10501000256127616561FE21C8F80010666126617F
:10502000256127616561C8F8009066612661256188
:1050300027616561C8F800C0666126612561276146
:105040006561C8F800C066612661256127616561F8
:10505000C8F800C0666126612561B820FBF782FBB5
:1050600027616561C8F800A0666126612561276136
:105070006561C8F80090666126612561BA20FBF77A
:1050800071FB27616561C8F8009066612661256142
:105090006420FCF761F90020FCF7A5F93D490120E7
:1050A000C1F8A8015846FCF7E2FBBDE8F88F2DE9EE
:1050B000F84F394D81469846A8880A9EA0F5D043FE
:1050C000043B02D1A87901280AD0A2EB0900401CB8
:1050D00085B20C462D4F4FF4007A4FF0800B31E033
:1050E0002B880846991A0024AC712A24A3EB0903E3
:1050F0006C812B27491E5B1EAF8189B242469BB251
:105100000096FFF7D4FF0120A8716F81AC81CCE736
:1051100021464846FBF7A7FBFBF788FB00204FF42E
:10512000807C53461A4A594608E0C7F810C07B6194
:105130001660796139613B61401C80B2A842F4D3AA
:10514000641CA4B24445E3D9AFE72DE9F04F834690
:10515000A2EB0B00401C894685B2A3EB0900401C62
:105160001FFA80FA0024099E2AE009EB040081B2AC
:105170005846FBF778FBFBF759FB044900204B1519
:105180004FF48078024A802716E0000000100140AA
:105190000C0C014000002242C0000020C1F8108029
:1051A0004B6104FB050C36F81CC0C2F800C04F610F
:1051B0000F610B61401C80B2A842EFD3641CA4B203
:1051C0005445D2D3BDE8F08F2DE9FE4F0026A2EB67
:1051D000000882465F1A701E35468946B8F1000FF6
:1051E00002DD4FF0010102E003D14FF00001019117
:1051F00002E0C8F100080190002F02DD4FF001002D
:1052000002E003D14FF00000009002E0C7F1000778
:1052100000904046B84501DD044600E03C46601C75
:105220004FF0000B029015E01FFA89F11FFA8AF087
:10523000FBF72CFF46443D44A64202DD0199361B94
:105240008A44A54202DD00992D1B89440BF101001F
:105250001FFA80FB02998B45E6DDBDE8FE8FF0B5B5
:105260001C4615460E4607460B46FFF7ADFF3A466D
:10527000234631461046FFF7A7FF23462A46194624
:105280003846FFF7A1FF2A4623463146BDE8F040E5
:10529000104699E72DE9FC4F80460024154603206F
:1052A0000F46A0EB450649E0781B81B208EB040AE3
:1052B00001901FFA8AF0FBF7E9FE381B81B208EB78
:1052C000050900901FFA89F0FBF7E0FE07EB040BDD
:1052D0001FFA8BF11FFA89F0FBF7D8FE07EB0509DF
:1052E0001FFA89F11FFA8AF0FBF7D0FEA8EB040A37
:1052F0001FFA89F11FFA8AF0FBF7C8FEA8EB05092F
:105300001FFA8BF11FFA89F0FBF7C0FE019881B2FA
:105310001FFA8AF0FBF7BAFE009881B21FFA89F0F3
:10532000FBF7B4FE641C002E03DA06EB8406B61D00
:1053300004E0601B06EB80066D1E0A36AC42B3DD4E
:10534000BDE8FC8F2DE9F84F82461F460C468B4680
:10535000580700D0012000EBD70079084843203AD5
:10536000C0B202F0FF090026009041E00C2F10D0DF
:10537000102F12D0182F3ED1754909EBC90001EB4F
:1053800080004FF00008855D28060AD57148028824
:105390000BE009EB49007049F1E7704901EB091096
:1053A000EFE70A9828B96B48428821465046FBF738
:1053B00081FE6806050E6A48641CA4B24088A042BB
:1053C00019D9A4EB0B00B84209D10AF101001FFA68
:1053D00080FA63485C46018851450CD906E008F123
:1053E000010000F0FF08B8F1080FCDD3761CF6B22B
:1053F00000988642BAD358E60346012000E058439D
:10540000491EC9B2FBD270472DE9FF4F81B000277A
:10541000DDF838B01D46924680463C46B9464FEA14
:105420005B0627E0281B401EC1B20A20FFF7E4FFFD
:10543000BAFBF0F00A21B0FBF1F201FB120027B930
:10544000691E8C4201DA48B101273030C2B206FB36
:10545000048080B25B46CDF8009006E006FB048035
:1054600080B25B462022CDF800900299FFF76AFFD8
:10547000641CE4B2AC42D5D305B0A3E62DE9FF4FDE
:1054800081B08046DDF83CA00E984FF000091F4621
:1054900093464C460AF0010546082BE0381B401E97
:1054A000C1B20A20FFF7A8FFBBFBF0F00A21B0FB56
:1054B000F1F201FB1200B9F1000F05D1791E8C4207
:1054C00002DA48B14FF001093030C2B206FB048065
:1054D00080B200950E9B08E05FEA0A6006FB04803C
:1054E0000E9B80B2009508D530220299FFF72AFF63
:1054F000641CE4B2BC42D1D3BEE72022F5E72DE91B
:10550000F84F044600F0FF0810190D46DDE90A7651
:105510001FFA80FA58191FFA80F94FF0000B11E0BA
:10552000544502D3E819444685B24D450FD23B4657
:1055300029462046CDF800B0FFF704FF04EB5700E2
:1055400084B2761C3278A2F120005E28E8D9ACE55E
:10555000E07300081C0000207C690008F06D000862
:10556000C0000020F0B5074687B00121042000F0FC
:10557000E0FD0121480400F0E5FD3E4D284600F025
:1055800027FE18208DF813000424ADF810400320E6
:10559000394E8DF8120004A9304600F0E2FB8DF878
:1055A00013400820ADF8100004A9304600F0D9FBE4
:1055B00000210C20ADF80A00ADF80610ADF80C1073
:1055C000ADF80810ADF8041000976946284600F0C1
:1055D0002FFE0121284600F09EFE012240F22551B7
:1055E000284600F0A2FE26208DF8140001208DF838
:1055F00017008DF815008DF8160005A800F081FF42
:1056000007B0F0BD70B51B4C40F225552946204629
:1056100000F042FF00282CD0204600F0D6FEC2B297
:10562000164882800678002101235EB10678012E9B
:1056300011D001704170817029462046BDE870404C
:1056400000F049BF232A01D182780AB10170F3E743
:1056500003704170F0E70A4E2AB14378F1185B1CE1
:1056600043700A70E8E74278B1544170017083706A
:10567000E2E770BD00440040000801402000002027
:10568000CE000020F8B50121142000F052FD0121C8
:10569000474800F0F1FB4FF40040ADF80000454EE4
:1056A00048248DF803406946304600F05AFB10202C
:1056B000ADF80000404F28258DF803506946384664
:1056C00000F04FFB2020ADF800008DF80340694644
:1056D000384600F046FB0120ADF800008DF803507D
:1056E0006946304600F03DFBF8BD2DE9F041334CF2
:1056F000314E304D01274FF4004808B1277001E0CA
:105700002078A8B12021304600F081FBB8B1414695
:10571000284600F07CFB90B11021304600F077FB6A
:1057200001280CD00121284600F071FB012806D089
:105730002021304600F06BFB012825D035E00A20FF
:1057400000F020FA002020702021304600F05FFB9E
:1057500088B14146284600F05AFB78B1012128461D
:1057600000F055FB01280BD01021304600F04FFB14
:10577000012807D019E00120BDE8F0810220FBE7F5
:105780000320F9E70420F7E74146284600F03FFBF5
:1057900001280AD11021304600F039FB28B9012137
:1057A000284600F034FB00B927700020E4E7000031
:1057B00000023000000801400010014026000020D7
:1057C00008B50121102000F0B4FC4FF4C050ADF832
:1057D000000010208DF8030003208DF802006946B8
:1057E0007F4800F0BEFA7F480121C0F8B011C0F830
:1057F000AC1108BD70B57A48416821F47041416030
:10580000416841F440514160764C0120C4F8AC013C
:10581000C4F8B001042004F5D67400F09CF900250A
:105820002560042000F097F9656070BD6C4810B5E4
:10583000416821F470414160416841F44051416048
:10584000684C0020C4F8B001C4F8AC01042004F591
:10585000D67400F080F9012060602060BDE810403F
:10586000042000F078B970B55D480024416821F447
:1058700070414160416841F400414160594D012649
:10588000C5F8AC61304600F066F9C5F8B06101209A
:1058900000F061F907E0641CE4B2FA2C03D9FFF7C9
:1058A000C5FF012070BDD5F82C010028F3D1C5F843
:1058B000B00170BD70B54B4C0025C4F8B0514848DC
:1058C000416821F470414160416841F440514160B8
:1058D000C4F8AC51022004F5D67400F03CF9012064
:1058E0006060022000F037F9656070BD70B53D4C16
:1058F0000026C4F8B0613A48416821F47041416023
:10590000416841F4405141600125C4F8AC51022086
:1059100004F5D67400F01FF96560022000F01BF951
:10592000666070BD2DE9F04105462D48416821F4BF
:1059300070414160416841F440514160294E002767
:10594000C6F8B0713C464FF00108E809C6F8AC0152
:105950006806050E022000F0FEF8C6F8B0810220AD
:1059600000F0F9F8C6F8B071022000F0F4F8641CF9
:10597000E4B2082CE9D3BDE8F0812DE9F047814677
:1059800017480024416821F470414160416841F4A6
:1059900000414160134E254627464FF00108C6F8E6
:1059A000B071022000F0D7F8C6F8B0816006040E8E
:1059B000D6F82C0108B1641CE4B2012000F0CBF849
:1059C0006D1CEDB2082DEAD3B9F1000F04D0FFF73A
:1059D00071FF2046BDE8F087FFF788FFF9E7000078
:1059E0000010014000002242FFF7EABE10B5044655
:1059F000FFF700FF200AA02101EB4000C0B2FFF733
:105A000091FFFFF730FFE0B2FFF78CFFFFF72BFFAE
:105A1000FFF7F0FEA120FFF785FFFFF724FF00202E
:105A2000FFF7ABFF0446FFF701FF204610BD70B53E
:105A30000D460446FFF7DEFE200AA02101EB4000E0
:105A4000C0B2FFF76FFFFFF70EFFE0B2FFF76AFF8C
:105A5000FFF709FF2846FFF765FFFFF704FFFFF791
:105A6000E5FEBDE870400A2000F08CB82DE9F04159
:105A700016460D460746002409E0E00025FA00F02E
:105A8000C1B2381980B2FFF7D2FF641CE4B2B4424D
:105A9000F3D3BDE8F0812DE9F0410D460146002029
:105AA00004464E1908E00702301B401E80B2FFF783
:105AB0009DFF641C3844E4B2AC42F4D3E9E710B56E
:105AC000FF20FFF793FF55280AD05521FF20FFF74D
:105AD000AEFFFF20FFF78AFF552801D0012010BD3F
